{
  "_format": "hh-sol-artifact-1",
  "contractName": "DAEntrance",
  "sourceName": "contracts/DAEntrance.sol",
  "abi": [
    {
      "anonymous": false,
      "inputs": [
        {
          "indexed": true,
          "internalType": "address",
          "name": "beneficiary",
          "type": "address"
        },
        {
          "indexed": true,
          "internalType": "uint256",
          "name": "sampleRound",
          "type": "uint256"
        },
        {
          "indexed": true,
          "internalType": "uint256",
          "name": "epoch",
          "type": "uint256"
        },
        {
          "indexed": false,
          "internalType": "uint256",
          "name": "quorumId",
          "type": "uint256"
        },
        {
          "indexed": false,
          "internalType": "bytes32",
          "name": "dataRoot",
          "type": "bytes32"
        },
        {
          "indexed": false,
          "internalType": "uint256",
          "name": "quality",
          "type": "uint256"
        },
        {
          "indexed": false,
          "internalType": "uint256",
          "name": "lineIndex",
          "type": "uint256"
        },
        {
          "indexed": false,
          "internalType": "uint256",
          "name": "sublineIndex",
          "type": "uint256"
        },
        {
          "indexed": false,
          "internalType": "uint256",
          "name": "reward",
          "type": "uint256"
        }
      ],
      "name": "DAReward",
      "type": "event"
    },
    {
      "anonymous": false,
      "inputs": [
        {
          "indexed": false,
          "internalType": "bytes32",
          "name": "dataRoot",
          "type": "bytes32"
        },
        {
          "indexed": false,
          "internalType": "uint256",
          "name": "epoch",
          "type": "uint256"
        },
        {
          "indexed": false,
          "internalType": "uint256",
          "name": "quorumId",
          "type": "uint256"
        }
      ],
      "name": "DataUpload",
      "type": "event"
    },
    {
      "anonymous": false,
      "inputs": [
        {
          "indexed": false,
          "internalType": "bytes32",
          "name": "dataRoot",
          "type": "bytes32"
        },
        {
          "indexed": false,
          "internalType": "uint256",
          "name": "epoch",
          "type": "uint256"
        },
        {
          "indexed": false,
          "internalType": "uint256",
          "name": "quorumId",
          "type": "uint256"
        }
      ],
      "name": "ErasureCommitmentVerified",
      "type": "event"
    },
    {
      "anonymous": false,
      "inputs": [
        {
          "indexed": true,
          "internalType": "uint256",
          "name": "sampleRound",
          "type": "uint256"
        },
        {
          "indexed": false,
          "internalType": "uint256",
          "name": "sampleHeight",
          "type": "uint256"
        },
        {
          "indexed": false,
          "internalType": "bytes32",
          "name": "sampleSeed",
          "type": "bytes32"
        },
        {
          "indexed": false,
          "internalType": "uint256",
          "name": "podasTarget",
          "type": "uint256"
        }
      ],
      "name": "NewSampleRound",
      "type": "event"
    },
    {
      "anonymous": false,
      "inputs": [
        {
          "indexed": true,
          "internalType": "address",
          "name": "previousOwner",
          "type": "address"
        },
        {
          "indexed": true,
          "internalType": "address",
          "name": "newOwner",
          "type": "address"
        }
      ],
      "name": "OwnershipTransferred",
      "type": "event"
    },
    {
      "inputs": [],
      "name": "DA_SIGNERS",
      "outputs": [
        {
          "internalType": "contract IDASigners",
          "name": "",
          "type": "address"
        }
      ],
      "stateMutability": "view",
      "type": "function"
    },
    {
      "inputs": [],
      "name": "MAX_PODAS_TARGET",
      "outputs": [
        {
          "internalType": "uint256",
          "name": "",
          "type": "uint256"
        }
      ],
      "stateMutability": "view",
      "type": "function"
    },
    {
      "inputs": [],
      "name": "SLICE_DENOMINATOR",
      "outputs": [
        {
          "internalType": "uint256",
          "name": "",
          "type": "uint256"
        }
      ],
      "stateMutability": "view",
      "type": "function"
    },
    {
      "inputs": [],
      "name": "SLICE_NUMERATOR",
      "outputs": [
        {
          "internalType": "uint256",
          "name": "",
          "type": "uint256"
        }
      ],
      "stateMutability": "view",
      "type": "function"
    },
    {
      "inputs": [],
      "name": "activedReward",
      "outputs": [
        {
          "internalType": "uint256",
          "name": "",
          "type": "uint256"
        }
      ],
      "stateMutability": "view",
      "type": "function"
    },
    {
      "inputs": [],
      "name": "blobPrice",
      "outputs": [
        {
          "internalType": "uint256",
          "name": "",
          "type": "uint256"
        }
      ],
      "stateMutability": "view",
      "type": "function"
    },
    {
      "inputs": [
        {
          "internalType": "bytes32",
          "name": "_dataRoot",
          "type": "bytes32"
        },
        {
          "internalType": "uint256",
          "name": "_epoch",
          "type": "uint256"
        },
        {
          "internalType": "uint256",
          "name": "_quorumId",
          "type": "uint256"
        }
      ],
      "name": "commitmentExists",
      "outputs": [
        {
          "internalType": "bool",
          "name": "",
          "type": "bool"
        }
      ],
      "stateMutability": "view",
      "type": "function"
    },
    {
      "inputs": [],
      "name": "currentEpoch",
      "outputs": [
        {
          "internalType": "uint256",
          "name": "",
          "type": "uint256"
        }
      ],
      "stateMutability": "view",
      "type": "function"
    },
    {
      "inputs": [],
      "name": "currentEpochReward",
      "outputs": [
        {
          "internalType": "uint256",
          "name": "",
          "type": "uint256"
        }
      ],
      "stateMutability": "view",
      "type": "function"
    },
    {
      "inputs": [],
      "name": "currentSampleSeed",
      "outputs": [
        {
          "internalType": "bytes32",
          "name": "",
          "type": "bytes32"
        }
      ],
      "stateMutability": "view",
      "type": "function"
    },
    {
      "inputs": [],
      "name": "donate",
      "outputs": [],
      "stateMutability": "payable",
      "type": "function"
    },
    {
      "inputs": [],
      "name": "epochWindowSize",
      "outputs": [
        {
          "internalType": "uint256",
          "name": "",
          "type": "uint256"
        }
      ],
      "stateMutability": "view",
      "type": "function"
    },
    {
      "inputs": [],
      "name": "initialize",
      "outputs": [],
      "stateMutability": "nonpayable",
      "type": "function"
    },
    {
      "inputs": [],
      "name": "initialized",
      "outputs": [
        {
          "internalType": "bool",
          "name": "",
          "type": "bool"
        }
      ],
      "stateMutability": "view",
      "type": "function"
    },
    {
      "inputs": [],
      "name": "nextSampleHeight",
      "outputs": [
        {
          "internalType": "uint256",
          "name": "",
          "type": "uint256"
        }
      ],
      "stateMutability": "view",
      "type": "function"
    },
    {
      "inputs": [],
      "name": "owner",
      "outputs": [
        {
          "internalType": "address",
          "name": "",
          "type": "address"
        }
      ],
      "stateMutability": "view",
      "type": "function"
    },
    {
      "inputs": [
        {
          "internalType": "address",
          "name": "dest",
          "type": "address"
        }
      ],
      "name": "payments",
      "outputs": [
        {
          "internalType": "uint256",
          "name": "",
          "type": "uint256"
        }
      ],
      "stateMutability": "view",
      "type": "function"
    },
    {
      "inputs": [],
      "name": "podasTarget",
      "outputs": [
        {
          "internalType": "uint256",
          "name": "",
          "type": "uint256"
        }
      ],
      "stateMutability": "view",
      "type": "function"
    },
    {
      "inputs": [],
      "name": "renounceOwnership",
      "outputs": [],
      "stateMutability": "nonpayable",
      "type": "function"
    },
    {
      "inputs": [],
      "name": "rewardRatio",
      "outputs": [
        {
          "internalType": "uint256",
          "name": "",
          "type": "uint256"
        }
      ],
      "stateMutability": "view",
      "type": "function"
    },
    {
      "inputs": [],
      "name": "roundSubmissions",
      "outputs": [
        {
          "internalType": "uint256",
          "name": "",
          "type": "uint256"
        }
      ],
      "stateMutability": "view",
      "type": "function"
    },
    {
      "inputs": [],
      "name": "samplePeriod",
      "outputs": [
        {
          "internalType": "uint256",
          "name": "",
          "type": "uint256"
        }
      ],
      "stateMutability": "view",
      "type": "function"
    },
    {
      "inputs": [],
      "name": "sampleRange",
      "outputs": [
        {
          "components": [
            {
              "internalType": "uint64",
              "name": "startEpoch",
              "type": "uint64"
            },
            {
              "internalType": "uint64",
              "name": "endEpoch",
              "type": "uint64"
            }
          ],
          "internalType": "struct IDASample.SampleRange",
          "name": "",
          "type": "tuple"
        }
      ],
      "stateMutability": "nonpayable",
      "type": "function"
    },
    {
      "inputs": [],
      "name": "sampleRound",
      "outputs": [
        {
          "internalType": "uint256",
          "name": "",
          "type": "uint256"
        }
      ],
      "stateMutability": "view",
      "type": "function"
    },
    {
      "inputs": [],
      "name": "sampleTask",
      "outputs": [
        {
          "components": [
            {
              "internalType": "bytes32",
              "name": "sampleHash",
              "type": "bytes32"
            },
            {
              "internalType": "uint256",
              "name": "podasTarget",
              "type": "uint256"
            },
            {
              "internalType": "uint64",
              "name": "restSubmissions",
              "type": "uint64"
            }
          ],
          "internalType": "struct IDASample.SampleTask",
          "name": "",
          "type": "tuple"
        }
      ],
      "stateMutability": "nonpayable",
      "type": "function"
    },
    {
      "inputs": [],
      "name": "serviceFee",
      "outputs": [
        {
          "internalType": "uint256",
          "name": "",
          "type": "uint256"
        }
      ],
      "stateMutability": "view",
      "type": "function"
    },
    {
      "inputs": [],
      "name": "serviceFeeRateBps",
      "outputs": [
        {
          "internalType": "uint256",
          "name": "",
          "type": "uint256"
        }
      ],
      "stateMutability": "view",
      "type": "function"
    },
    {
      "inputs": [
        {
          "internalType": "uint256",
          "name": "_blobPrice",
          "type": "uint256"
        }
      ],
      "name": "setBlobPrice",
      "outputs": [],
      "stateMutability": "nonpayable",
      "type": "function"
    },
    {
      "inputs": [
        {
          "internalType": "uint64",
          "name": "_epochWindowSize",
          "type": "uint64"
        }
      ],
      "name": "setEpochWindowSize",
      "outputs": [],
      "stateMutability": "nonpayable",
      "type": "function"
    },
    {
      "inputs": [
        {
          "internalType": "uint64",
          "name": "_rewardRatio",
          "type": "uint64"
        }
      ],
      "name": "setRewardRatio",
      "outputs": [],
      "stateMutability": "nonpayable",
      "type": "function"
    },
    {
      "inputs": [
        {
          "internalType": "uint64",
          "name": "_targetRoundSubmissions",
          "type": "uint64"
        }
      ],
      "name": "setRoundSubmissions",
      "outputs": [],
      "stateMutability": "nonpayable",
      "type": "function"
    },
    {
      "inputs": [
        {
          "internalType": "uint64",
          "name": "samplePeriod_",
          "type": "uint64"
        }
      ],
      "name": "setSamplePeriod",
      "outputs": [],
      "stateMutability": "nonpayable",
      "type": "function"
    },
    {
      "inputs": [
        {
          "internalType": "uint256",
          "name": "bps",
          "type": "uint256"
        }
      ],
      "name": "setServiceFeeRate",
      "outputs": [],
      "stateMutability": "nonpayable",
      "type": "function"
    },
    {
      "inputs": [
        {
          "internalType": "uint256",
          "name": "_singleDonation",
          "type": "uint256"
        }
      ],
      "name": "setSingleDonation",
      "outputs": [],
      "stateMutability": "nonpayable",
      "type": "function"
    },
    {
      "inputs": [
        {
          "internalType": "address",
          "name": "treasury_",
          "type": "address"
        }
      ],
      "name": "setTreasury",
      "outputs": [],
      "stateMutability": "nonpayable",
      "type": "function"
    },
    {
      "inputs": [],
      "name": "singleDonation",
      "outputs": [
        {
          "internalType": "uint256",
          "name": "",
          "type": "uint256"
        }
      ],
      "stateMutability": "view",
      "type": "function"
    },
    {
      "inputs": [
        {
          "internalType": "bytes32[]",
          "name": "_dataRoots",
          "type": "bytes32[]"
        }
      ],
      "name": "submitOriginalData",
      "outputs": [],
      "stateMutability": "payable",
      "type": "function"
    },
    {
      "inputs": [
        {
          "components": [
            {
              "internalType": "bytes32",
              "name": "sampleSeed",
              "type": "bytes32"
            },
            {
              "internalType": "uint64",
              "name": "epoch",
              "type": "uint64"
            },
            {
              "internalType": "uint64",
              "name": "quorumId",
              "type": "uint64"
            },
            {
              "internalType": "uint32",
              "name": "lineIndex",
              "type": "uint32"
            },
            {
              "internalType": "uint32",
              "name": "sublineIndex",
              "type": "uint32"
            },
            {
              "internalType": "uint256",
              "name": "quality",
              "type": "uint256"
            },
            {
              "internalType": "bytes32",
              "name": "dataRoot",
              "type": "bytes32"
            },
            {
              "internalType": "bytes32[3]",
              "name": "blobRoots",
              "type": "bytes32[3]"
            },
            {
              "internalType": "bytes32[]",
              "name": "proof",
              "type": "bytes32[]"
            },
            {
              "internalType": "bytes",
              "name": "data",
              "type": "bytes"
            }
          ],
          "internalType": "struct SampleResponse",
          "name": "rep",
          "type": "tuple"
        }
      ],
      "name": "submitSamplingResponse",
      "outputs": [],
      "stateMutability": "nonpayable",
      "type": "function"
    },
    {
      "inputs": [
        {
          "components": [
            {
              "internalType": "bytes32",
              "name": "dataRoot",
              "type": "bytes32"
            },
            {
              "internalType": "uint256",
              "name": "epoch",
              "type": "uint256"
            },
            {
              "internalType": "uint256",
              "name": "quorumId",
              "type": "uint256"
            },
            {
              "components": [
                {
                  "internalType": "uint256",
                  "name": "X",
                  "type": "uint256"
                },
                {
                  "internalType": "uint256",
                  "name": "Y",
                  "type": "uint256"
                }
              ],
              "internalType": "struct BN254.G1Point",
              "name": "erasureCommitment",
              "type": "tuple"
            },
            {
              "internalType": "bytes",
              "name": "quorumBitmap",
              "type": "bytes"
            },
            {
              "components": [
                {
                  "internalType": "uint256[2]",
                  "name": "X",
                  "type": "uint256[2]"
                },
                {
                  "internalType": "uint256[2]",
                  "name": "Y",
                  "type": "uint256[2]"
                }
              ],
              "internalType": "struct BN254.G2Point",
              "name": "aggPkG2",
              "type": "tuple"
            },
            {
              "components": [
                {
                  "internalType": "uint256",
                  "name": "X",
                  "type": "uint256"
                },
                {
                  "internalType": "uint256",
                  "name": "Y",
                  "type": "uint256"
                }
              ],
              "internalType": "struct BN254.G1Point",
              "name": "signature",
              "type": "tuple"
            }
          ],
          "internalType": "struct IDAEntrance.CommitRootSubmission[]",
          "name": "_submissions",
          "type": "tuple[]"
        }
      ],
      "name": "submitVerifiedCommitRoots",
      "outputs": [],
      "stateMutability": "nonpayable",
      "type": "function"
    },
    {
      "inputs": [],
      "name": "sync",
      "outputs": [],
      "stateMutability": "nonpayable",
      "type": "function"
    },
    {
      "inputs": [],
      "name": "targetRoundSubmissions",
      "outputs": [
        {
          "internalType": "uint256",
          "name": "",
          "type": "uint256"
        }
      ],
      "stateMutability": "view",
      "type": "function"
    },
    {
      "inputs": [],
      "name": "targetRoundSubmissionsNext",
      "outputs": [
        {
          "internalType": "uint256",
          "name": "",
          "type": "uint256"
        }
      ],
      "stateMutability": "view",
      "type": "function"
    },
    {
      "inputs": [],
      "name": "totalDonations",
      "outputs": [
        {
          "internalType": "uint256",
          "name": "",
          "type": "uint256"
        }
      ],
      "stateMutability": "view",
      "type": "function"
    },
    {
      "inputs": [
        {
          "internalType": "address",
          "name": "newOwner",
          "type": "address"
        }
      ],
      "name": "transferOwnership",
      "outputs": [],
      "stateMutability": "nonpayable",
      "type": "function"
    },
    {
      "inputs": [],
      "name": "treasury",
      "outputs": [
        {
          "internalType": "address",
          "name": "",
          "type": "address"
        }
      ],
      "stateMutability": "view",
      "type": "function"
    },
    {
      "inputs": [
        {
          "internalType": "bytes32",
          "name": "_dataRoot",
          "type": "bytes32"
        },
        {
          "internalType": "uint256",
          "name": "_epoch",
          "type": "uint256"
        },
        {
          "internalType": "uint256",
          "name": "_quorumId",
          "type": "uint256"
        }
      ],
      "name": "verifiedErasureCommitment",
      "outputs": [
        {
          "components": [
            {
              "internalType": "uint256",
              "name": "X",
              "type": "uint256"
            },
            {
              "internalType": "uint256",
              "name": "Y",
              "type": "uint256"
            }
          ],
          "internalType": "struct BN254.G1Point",
          "name": "",
          "type": "tuple"
        }
      ],
      "stateMutability": "view",
      "type": "function"
    },
    {
      "inputs": [
        {
          "internalType": "address payable",
          "name": "payee",
          "type": "address"
        }
      ],
      "name": "withdrawPayments",
      "outputs": [],
      "stateMutability": "nonpayable",
      "type": "function"
    }
  ],
  "bytecode": "0x60a06040523480156200001157600080fd5b50604051620000209062000050565b604051809103906000f0801580156200003d573d6000803e3d6000fd5b506001600160a01b03166080526200005e565b61058c8062003c6a83390190565b608051613be262000088600039600081816108dc0152818161116c01526121f00152613be26000f3fe6080604052600436106102885760003560e01c80638129fc1c1161015a578063c8d3b359116100c1578063ed88c68e1161007a578063ed88c68e14610741578063f0f4426014610749578063f2fde38b14610769578063f690277514610789578063ff187748146107a9578063fff6cae9146107bf57600080fd5b8063c8d3b359146106ac578063d4ae59c9146106c2578063de2ed893146106d5578063e2982c21146106eb578063e68e035b1461070b578063eafed6ce1461072157600080fd5b806398920f571161011357806398920f57146105ef5780639b1d3091146106055780639da3a69b146106255780639fae1fa414610660578063b1be17ab14610676578063c05751111461069657600080fd5b80638129fc1c1461053157806388521ec7146105465780638abdf5aa146105665780638bdcc7121461057c5780638da5cb5b14610591578063988ea94e146105af57600080fd5b80633d00448a116101fe5780636a53525d116101b75780636a53525d1461047e5780636efc25551461049e578063715018a6146104da5780637397eb33146104ef5780637667180814610505578063807f063a1461051b57600080fd5b80633d00448a146103da5780633e898337146103f05780635626a47b14610406578063602b245a1461041b57806361d027b314610430578063646033bc1461046857600080fd5b80631a1b27d5116102505780631a1b27d51461032e57806323dd60a61461034e578063257a3aa31461036e5780632fc0534b1461038457806331b3eb941461039a5780633bab2a70146103ba57600080fd5b8063070e72101461028d5780631192de9a146102b657806312577052146102d8578063158ef93e146102ee578063168a062c14610318575b600080fd5b34801561029957600080fd5b506102a360a95481565b6040519081526020015b60405180910390f35b3480156102c257600080fd5b506102d66102d1366004613211565b6107d4565b005b3480156102e457600080fd5b506102a360a35481565b3480156102fa57600080fd5b50609a546103089060ff1681565b60405190151581526020016102ad565b34801561032457600080fd5b506102a3609d5481565b34801561033a57600080fd5b506102d6610349366004613233565b61084f565b34801561035a57600080fd5b506102d6610369366004613233565b610886565b34801561037a57600080fd5b506102a360a65481565b34801561039057600080fd5b506102a360a15481565b3480156103a657600080fd5b506102d66103b5366004613261565b6108bd565b3480156103c657600080fd5b506102d66103d5366004613211565b61093b565b3480156103e657600080fd5b506102a360aa5481565b3480156103fc57600080fd5b506102a360a75481565b34801561041257600080fd5b506102a3600281565b34801561042757600080fd5b506102a3600381565b34801561043c57600080fd5b5060ad54610450906001600160a01b031681565b6040516001600160a01b0390911681526020016102ad565b34801561047457600080fd5b506102a360a85481565b34801561048a57600080fd5b5061030861049936600461327e565b6109d4565b3480156104aa57600080fd5b506104b36109f7565b6040805182516001600160401b0390811682526020938401511692810192909252016102ad565b3480156104e657600080fd5b506102d6610a7b565b3480156104fb57600080fd5b506102a3609e5481565b34801561051157600080fd5b506102a3609b5481565b34801561052757600080fd5b5061045061100081565b34801561053d57600080fd5b506102d6610aef565b34801561055257600080fd5b506102d6610561366004613211565b610c2b565b34801561057257600080fd5b506102a360a55481565b34801561058857600080fd5b506102a3610da9565b34801561059d57600080fd5b506033546001600160a01b0316610450565b3480156105bb57600080fd5b506105c4610db9565b604080518251815260208084015190820152918101516001600160401b0316908201526060016102ad565b3480156105fb57600080fd5b506102a360ab5481565b34801561061157600080fd5b506102d6610620366004613233565b610e2b565b34801561063157600080fd5b5061064561064036600461327e565b610e62565b604080518251815260209283015192810192909252016102ad565b34801561066c57600080fd5b506102a3609c5481565b34801561068257600080fd5b506102d6610691366004613211565b610ed2565b3480156106a257600080fd5b506102a360ac5481565b3480156106b857600080fd5b506102a3609f5481565b6102d66106d03660046133eb565b610f6b565b3480156106e157600080fd5b506102a360a45481565b3480156106f757600080fd5b506102a3610706366004613261565b61114a565b34801561071757600080fd5b506102a360a25481565b34801561072d57600080fd5b506102d661073c366004613575565b6111df565b6102d66114e7565b34801561075557600080fd5b506102d6610764366004613261565b611508565b34801561077557600080fd5b506102d6610784366004613261565b61155c565b34801561079557600080fd5b506102d66107a436600461370d565b611647565b3480156107b557600080fd5b506102a360a05481565b3480156107cb57600080fd5b506102d6611b6f565b6033546001600160a01b031633146108075760405162461bcd60e51b81526004016107fe90613816565b60405180910390fd5b61080f611b6f565b6001600160401b03811660ab55609d5460000361084c5760ab546108338143613877565b61083e90600161388b565b610848919061389e565b609e555b50565b6033546001600160a01b031633146108795760405162461bcd60e51b81526004016107fe90613816565b610881611b6f565b60a955565b6033546001600160a01b031633146108b05760405162461bcd60e51b81526004016107fe90613816565b6108b8611b6f565b60aa55565b6040516351cff8d960e01b81526001600160a01b0382811660048301527f000000000000000000000000000000000000000000000000000000000000000016906351cff8d990602401600060405180830381600087803b15801561092057600080fd5b505af1158015610934573d6000803e3d6000fd5b5050505050565b6033546001600160a01b031633146109655760405162461bcd60e51b81526004016107fe90613816565b61096d611b6f565b6000816001600160401b0316116109c65760405162461bcd60e51b815260206004820152601d60248201527f52657761726420726174696f206d757374206265206e6f6e2d7a65726f00000060448201526064016107fe565b6001600160401b031660a855565b6000806109e2858585610e62565b90506109ed81611b81565b1595945050505050565b6040805180820190915260008082526020820152610a13611b6f565b6000806000609b541115610a33576001609b54610a3091906138bd565b90505b60a7548110610a5857600160a754610a4b91906138bd565b610a5590826138bd565b91505b604080518082019091526001600160401b03928316815291166020820152919050565b6033546001600160a01b03163314610aa55760405162461bcd60e51b81526004016107fe90613816565b6033546040516000916001600160a01b0316907f8be0079c531659141344cd1fd0a4f28419497f9722a3daafe3b4186f6b6457e0908390a3603380546001600160a01b0319169055565b600054610100900460ff1680610b08575060005460ff16155b610b245760405162461bcd60e51b81526004016107fe906138d0565b600054610100900460ff16158015610b46576000805461ffff19166101011790555b610b4e611b97565b6110006001600160a01b031663f4145a836040518163ffffffff1660e01b8152600401602060405180830381865afa158015610b8e573d6000803e3d6000fd5b505050506040513d601f19601f82011682018060405250810190610bb2919061391e565b609b55601e60ab819055610bc68143613877565b610bd190600161388b565b610bdb919061389e565b609e55610beb6080600019613877565b609f55601460a65561012c60a75562124f8060a855600060a981905560aa55609a805460ff19166001179055801561084c576000805461ff001916905550565b6033546001600160a01b03163314610c555760405162461bcd60e51b81526004016107fe90613816565b610c5d611b6f565b60a154610c6b90600461389e565b816001600160401b03161115610ccf5760405162461bcd60e51b8152602060048201526024808201527f496e63726561736520726f756e64207375626d697373696f6e7320746f6f206c6044820152636172676560e01b60648201526084016107fe565b600460a154610cde9190613877565b816001600160401b03161015610d425760405162461bcd60e51b8152602060048201526024808201527f446563726561736520726f756e64207375626d697373696f6e7320746f6f206c6044820152636172676560e01b60648201526084016107fe565b6000816001600160401b031611610d9b5760405162461bcd60e51b815260206004820181905260248201527f526f756e64207375626d697373696f6e732063616e6e6f74206265207a65726f60448201526064016107fe565b6001600160401b031660a655565b610db66080600019613877565b81565b6040805160608101825260008082526020820181905291810191909152610dde611b6f565b600060a1546002610def919061389e565b90506040518060600160405280609c548152602001609f54815260200160a05483610e1a91906138bd565b6001600160401b0316905292915050565b6033546001600160a01b03163314610e555760405162461bcd60e51b81526004016107fe90613816565b610e5d611b6f565b60ac55565b604080518082018252600080825260209182018190528251808301969096528583019490945260608086019390935281518086039093018352608085018083528351938201939093208452609790529182902060c084019092528154815260019091015460a09092019190915290565b6033546001600160a01b03163314610efc5760405162461bcd60e51b81526004016107fe90613816565b610f04611b6f565b6000816001600160401b031611610f5d5760405162461bcd60e51b815260206004820181905260248201527f45706f63682077696e646f772073697a652063616e6e6f74206265207a65726f60448201526064016107fe565b6001600160401b031660a755565b610f73611b6f565b60aa548151610f82919061389e565b341015610fca5760405162461bcd60e51b81526020600482015260166024820152754e6f7420656e6f75676820646120626c6f622066656560501b60448201526064016107fe565b3460a26000828254610fdc919061388b565b9091555050609b54604051635ecba50360e01b815260009161100091635ecba5039161100e9160040190815260200190565b602060405180830381865afa15801561102b573d6000803e3d6000fd5b505050506040513d601f19601f8201168201806040525081019061104f919061391e565b9050600081116110a15760405162461bcd60e51b815260206004820152601960248201527f4441456e7472616e63653a204e6f204441205369676e6572730000000000000060448201526064016107fe565b8060985460016110b1919061388b565b6110bb9190613937565b609855815160005b81811015611144577ff0bf37f8713754493879920443065424c575888634675f146c115709bbb59acb8482815181106110fe576110fe61394b565b6020026020010151609b5460985460405161112c939291909283526020830191909152604082015260600190565b60405180910390a161113d81613961565b90506110c3565b50505050565b6040516371d4ed8d60e11b81526001600160a01b0382811660048301526000917f00000000000000000000000000000000000000000000000000000000000000009091169063e3a9db1a90602401602060405180830381865afa1580156111b5573d6000803e3d6000fd5b505050506040513d601f19601f820116820180604052508101906111d9919061391e565b92915050565b805160005b818110156114e25761124e8382815181106112015761120161394b565b60200260200101516000015184838151811061121f5761121f61394b565b60200260200101516020015185848151811061123d5761123d61394b565b6020026020010151604001516109d4565b6114d25760008060006110006001600160a01b03166350b7373987868151811061127a5761127a61394b565b6020026020010151602001518887815181106112985761129861394b565b6020026020010151604001518988815181106112b6576112b661394b565b6020026020010151608001516040518463ffffffff1660e01b81526004016112e09392919061399e565b608060405180830381865afa1580156112fd573d6000803e3d6000fd5b505050506040513d601f19601f8201168201806040525081019061132191906139df565b9250925092506113538387868151811061133d5761133d61394b565b6020026020010151611c1290919063ffffffff16565b61135e60038261389e565b61136983600261389e565b11156113c65760405162461bcd60e51b815260206004820152602660248201527f444152656769737472793a20696e73756666696369656e74207369676e656420604482015265736c6963657360d01b60648201526084016107fe565b8584815181106113d8576113d861394b565b6020026020010151606001516097600061140a8988815181106113fd576113fd61394b565b6020026020010151611dcf565b81526020808201929092526040016000208251815591015160019091015585517f0f1b20d87bebd11dddaaab51f01cf2726880cb3f8073b636dbafa2aa8cacd2569087908690811061145e5761145e61394b565b60200260200101516000015187868151811061147c5761147c61394b565b60200260200101516020015188878151811061149a5761149a61394b565b6020026020010151604001516040516114c6939291909283526020830191909152604082015260600190565b60405180910390a15050505b6114db81613961565b90506111e4565b505050565b6114ef611b6f565b3460a46000828254611501919061388b565b9091555050565b6033546001600160a01b031633146115325760405162461bcd60e51b81526004016107fe90613816565b61153a611b6f565b60ad80546001600160a01b0319166001600160a01b0392909216919091179055565b6033546001600160a01b031633146115865760405162461bcd60e51b81526004016107fe90613816565b6001600160a01b0381166115eb5760405162461bcd60e51b815260206004820152602660248201527f4f776e61626c653a206e6577206f776e657220697320746865207a65726f206160448201526564647265737360d01b60648201526084016107fe565b6033546040516001600160a01b038084169216907f8be0079c531659141344cd1fd0a4f28419497f9722a3daafe3b4186f6b6457e090600090a3603380546001600160a01b0319166001600160a01b0392909216919091179055565b61164f611b6f565b8051602080830151604080850151606086015160808701518351808701979097526001600160c01b031960c095861b8116888601529290941b90911660488601526001600160e01b031960e091821b8116605087015292901b90911660548401528051808403603801815260589093019052815191012060009060008181526099602052604090205490915060ff16156117235760405162461bcd60e51b8152602060048201526015602482015274223ab83634b1b0ba32b21039bab136b4b9b9b4b7b760591b60448201526064016107fe565b6000818152609960205260409020805460ff19166001179055609d5461178b5760405162461bcd60e51b815260206004820152601e60248201527f53616d706c6520726f756e6420302063616e6e6f74206265206d696e6564000060448201526064016107fe565b60a15461179990600261389e565b60a054106117f35760405162461bcd60e51b815260206004820152602160248201527f546f6f206d616e79207375626d697373696f6e7320696e206f6e6520726f756e6044820152601960fa1b60648201526084016107fe565b609c5482511461183d5760405162461bcd60e51b8152602060048201526015602482015274155b9b585d18da1959081cd85b5c1b19481cd95959605a1b60448201526064016107fe565b609f548260a0015111156118895760405162461bcd60e51b8152602060048201526013602482015272145d585b1a5d1e481b9bdd081c995858da1959606a1b60448201526064016107fe565b6118b28260c0015183602001516001600160401b031684604001516001600160401b03166109d4565b6118f65760405162461bcd60e51b8152602060048201526015602482015274155b9c9958dbdc9919590818dbdb5b5a5d1b595b9d605a1b60448201526064016107fe565b609b5460a75483602001516001600160401b0316611914919061388b565b10156119625760405162461bcd60e51b815260206004820152601a60248201527f45706f6368206861732073746f707065642073616d706c696e6700000000000060448201526064016107fe565b609b5482602001516001600160401b0316106119c05760405162461bcd60e51b815260206004820152601b60248201527f43616e6e6f742073616d706c652063757272656e742065706f6368000000000060448201526064016107fe565b6119c982611e15565b602082015160408084015160608501519151637d37e5d360e11b81526001600160401b0393841660048201529216602483015263ffffffff1660448201526000906110009063fa6fcba690606401602060405180830381865afa158015611a34573d6000803e3d6000fd5b505050506040513d601f19601f82011682018060405250810190611a589190613a31565b9050600160a06000828254611a6d919061388b565b909155505060a85460a354600091611a8491613877565b9050611a8e61219a565b611a98908261388b565b90508015611ac2578060a36000828254611ab291906138bd565b90915550611ac2905082826121d1565b83602001516001600160401b0316609d54836001600160a01b03167fc3898eb7106c1cb2f727da316a76320c0035f5692950aa7f6b65d20a5efaedc587604001518860c001518960a001518a606001518b6080015189604051611b61969594939291906001600160401b039690961686526020860194909452604085019290925263ffffffff908116606085015216608083015260a082015260c00190565b60405180910390a450505050565b611b77612249565b611b7f6122ca565b565b80516000901580156111d9575050602001511590565b600054610100900460ff1680611bb0575060005460ff16155b611bcc5760405162461bcd60e51b81526004016107fe906138d0565b600054610100900460ff16158015611bee576000805461ffff19166101011790555b611bf6612384565b611bfe6123ee565b801561084c576000805461ff001916905550565b6000611c1d8361249c565b60a084015160c085015180516020808301518751888301518651848801518951868b01516040519b9c50999a98996000997f30644e72e131a029b85045b68181585d2833e84879b9709143e1f593f000000199611c839990989796959493929101613a71565b6040516020818303038152906040528051906020012060001c611ca69190613937565b9050600080611d14611cc2611cbb8986612516565b86906125a7565b611cca61263c565b611d0a611d0387611cfd604080518082018252600080825260209182015281518083019092526001825260029082015290565b90612516565b8a906125a7565b886201d4c06126fc565b9150915081611d785760405162461bcd60e51b815260206004820152602a60248201527f444152656769737472793a2070616972696e6720707265636f6d70696c652063604482015269185b1b0819985a5b195960b21b60648201526084016107fe565b80611dc55760405162461bcd60e51b815260206004820181905260248201527f444152656769737472793a207369676e617475726520697320696e76616c696460448201526064016107fe565b5050505050505050565b80516020808301516040808501518151808501959095528482019290925260608085019290925280518085039092018252608090930190925281519101206000906111d9565b8051611e635760405162461bcd60e51b815260206004820152601b60248201527f53616d706c6520736565642063616e6e6f7420626520656d707479000000000060448201526064016107fe565b611e706003610400613abd565b6001600160401b0316816060015163ffffffff1610611ec85760405162461bcd60e51b8152602060048201526014602482015273092dcc6dee4e4cac6e840d8d2dcca40d2dcc8caf60631b60448201526064016107fe565b60206001600160401b0316816080015163ffffffff1610611f2b5760405162461bcd60e51b815260206004820152601860248201527f496e636f7272656374207375622d6c696e6520696e646578000000000000000060448201526064016107fe565b6000611fb0826000015183602001516001600160401b031684604001516001600160401b03168560c00151866060015163ffffffff1660408051602080820197909752808201959095526060850193909352608084019190915260c01b6001600160c01b03191660a08301528051608881840301815260a89092019052805191012090565b90506000611fce82846080015163ffffffff16856101200151612920565b905080611fdd836000196138bd565b101561201e5760405162461bcd60e51b815260206004820152601060248201526f5175616c697479206f766572666c6f7760801b60448201526064016107fe565b60a083015161202d828461388b565b1461206e5760405162461bcd60e51b8152602060048201526011602482015270496e636f7272656374207175616c69747960781b60448201526064016107fe565b602061207c61040082613abd565b6120869190613aec565b6001600160401b031683610120015151146120db5760405162461bcd60e51b8152602060048201526015602482015274092dcc6dee4e4cac6e840c8c2e8c240d8cadccee8d605b1b60448201526064016107fe565b60006120eb846101200151612957565b90506000610400856060015163ffffffff166121079190613aec565b905060008560e00151826001600160401b03166003811061212a5761212a61394b565b602002015190506000866080015163ffffffff166020610400896060015163ffffffff166121589190613b12565b6121629190613abd565b61216c9190613b38565b905061217f848389610100015184612b89565b6121918760e001518860c00151612c95565b50505050505050565b600060a95460a454116121af5760a4546121b3565b60a9545b90508060a460008282546121c791906138bd565b9250508190555090565b60405163f340fa0160e01b81526001600160a01b0383811660048301527f0000000000000000000000000000000000000000000000000000000000000000169063f340fa019083906024016000604051808303818588803b15801561223557600080fd5b505af1158015612191573d6000803e3d6000fd5b60006110006001600160a01b031663f4145a836040518163ffffffff1660e01b8152600401602060405180830381865afa15801561228b573d6000803e3d6000fd5b505050506040513d601f19601f820116820180604052508101906122af919061391e565b905080609b54036122bd5750565b609b81905561084c612ce5565b609e544310156122d657565b609d54156122ea576122e6612d4b565b609f555b6001609d60008282546122fd919061388b565b9091555050609e546123106001826138bd565b40609c5560ab54609e805460009061232990849061388b565b909155505060a65460a155600060a055609d54609c54609f546040805185815260208101939093528201527fdfb5db5886e81f083727f21152a2a83457e99364e9f104e1aa10bbd6d9b4b95f9060600160405180910390a250565b600054610100900460ff168061239d575060005460ff16155b6123b95760405162461bcd60e51b81526004016107fe906138d0565b600054610100900460ff16158015611bfe576000805461ffff1916610101179055801561084c576000805461ff001916905550565b600054610100900460ff1680612407575060005460ff16155b6124235760405162461bcd60e51b81526004016107fe906138d0565b600054610100900460ff16158015612445576000805461ffff19166101011790555b603380546001600160a01b0319163390811790915560405181906000907f8be0079c531659141344cd1fd0a4f28419497f9722a3daafe3b4186f6b6457e0908290a350801561084c576000805461ff001916905550565b60408051808201909152600080825260208201528151602080840151604080860151606087015180519085015192516111d9966124fb969095949101948552602085019390935260408401919091526060830152608082015260a00190565b60405160208183030381529060405280519060200120612dfe565b604080518082019091526000808252602082015261253261311b565b835181526020808501519082015260408082018490526000908360608460076107d05a03fa9050808061256157fe5b508061259f5760405162461bcd60e51b815260206004820152600d60248201526c1958cb5b5d5b0b59985a5b1959609a1b60448201526064016107fe565b505092915050565b60408051808201909152600080825260208201526125c3613139565b835181526020808501518183015283516040808401919091529084015160608301526000908360808460066107d05a03fa905080806125fe57fe5b508061259f5760405162461bcd60e51b815260206004820152600d60248201526c1958cb5859190b59985a5b1959609a1b60448201526064016107fe565b612644613157565b50604080516080810182527f198e9393920d483a7260bfb731fb5d25f1aa493335a9e71297e485b7aef312c28183019081527f1800deef121f1e76426a00665e5c4479674322d4f75edadd46debd5cd992f6ed6060830152815281518083019092527f275dc4a288d1afb3cbb1ac09187524c7db36395df7be3b99e673b13a075a65ec82527f1d9befcd05a5323e6da4d435f3b617cdb3af83285c2df711ef39c01571827f9d60208381019190915281019190915290565b60408051808201825286815260208082018690528251808401909352868352820184905260009182919061272e61317c565b60005b60028110156128f357600061274782600661389e565b905084826002811061275b5761275b61394b565b6020020151518361276d83600061388b565b600c811061277d5761277d61394b565b60200201528482600281106127945761279461394b565b602002015160200151838260016127ab919061388b565b600c81106127bb576127bb61394b565b60200201528382600281106127d2576127d261394b565b60200201515151836127e583600261388b565b600c81106127f5576127f561394b565b602002015283826002811061280c5761280c61394b565b602002015151600160200201518361282583600361388b565b600c81106128355761283561394b565b602002015283826002811061284c5761284c61394b565b6020020151602001516000600281106128675761286761394b565b60200201518361287883600461388b565b600c81106128885761288861394b565b602002015283826002811061289f5761289f61394b565b6020020151602001516001600281106128ba576128ba61394b565b6020020151836128cb83600561388b565b600c81106128db576128db61394b565b602002015250806128eb81613961565b915050612731565b506128fc61319b565b60006020826101808560088cfa9151919c9115159b50909950505050505050505050565b600083838360405160200161293793929190613b5f565b60408051601f198184030181529190528051602090910120949350505050565b8051600090610100811080159061297857506129746001826138bd565b8116155b6129e35760405162461bcd60e51b815260206004820152603660248201527f44617461206c656e677468206d7573742062652067726561746572207468616e60448201527510191a9b1030b7321030903837bbb2b91037b310191760511b60648201526084016107fe565b60006129f161010083613877565b90506000816001600160401b03811115612a0d57612a0d6132aa565b604051908082528060200260200182016040528015612a36578160200160208202803683370190505b50905060005b82811015612a845761010081810287016020012082518190849084908110612a6657612a6661394b565b60209081029190910101525080612a7c81613961565b915050612a3c565b505b6001821115612b64576000612a9c600284613877565b905060005b81811015612b5c57612b2d83612ab883600261389e565b81518110612ac857612ac861394b565b602002602001015184836002612ade919061389e565b612ae990600161388b565b81518110612af957612af961394b565b6020026020010151604080516020808201949094528082019290925280518083038201815260609092019052805191012090565b838281518110612b3f57612b3f61394b565b602090810291909101015280612b5481613961565b915050612aa1565b509150612a86565b80600081518110612b7757612b7761394b565b60200260200101519350505050919050565b8360005b8351811015612c4f576000848281518110612baa57612baa61394b565b60200260200101519050600284612bc19190613b12565b6001600160401b0316600003612c0057604080516020808201869052818301849052825180830384018152606090920190925280519101209250612c2b565b6040805160208082018490528183018690528251808303840181526060909201909252805191012092505b6001846001600160401b0316901c9350508080612c4790613961565b915050612b8d565b508381146109345760405162461bcd60e51b8152602060048201526013602482015272125b98dbdc9c9958dd08189b1bd888149bdbdd606a1b60448201526064016107fe565b80612c9f83612e8d565b14612ce15760405162461bcd60e51b8152602060048201526012602482015271125b98dbdc9c9958dd0819185d18549bdbdd60721b60448201526064016107fe565b5050565b600061271060ac5460a254612cfa919061389e565b612d049190613877565b90508060a254612d1491906138bd565b60a36000828254612d25919061388b565b9091555050600060a255801561084c5760ad5461084c906001600160a01b031682612ed7565b60008060a15460a0541115612d9a57600860a15460a15460a054612d6f91906138bd565b612d799190613877565b612d839190613877565b905080609f54612d9391906138bd565b9150612dd6565b600860a15460a05460a154612daf91906138bd565b612db99190613877565b612dc39190613877565b905080609f54612dd3919061388b565b91505b612de36080600019613877565b821115612dfa57612df76080600019613877565b91505b5090565b604080518082019091526000808252602082015260008080612e2e600080516020613b8d83398151915286613937565b90505b612e3a81612ff0565b9093509150600080516020613b8d8339815191528283098303612e73576040805180820190915290815260208101919091529392505050565b600080516020613b8d833981519152600182089050612e31565b80516000906111d990612ecf908460015b6020020151604080516020808201949094528082019290925280518083038201815260609092019052805191012090565b836002612e9e565b80471015612f275760405162461bcd60e51b815260206004820152601d60248201527f416464726573733a20696e73756666696369656e742062616c616e636500000060448201526064016107fe565b6000826001600160a01b03168260405160006040518083038185875af1925050503d8060008114612f74576040519150601f19603f3d011682016040523d82523d6000602084013e612f79565b606091505b50509050806114e25760405162461bcd60e51b815260206004820152603a60248201527f416464726573733a20756e61626c6520746f2073656e642076616c75652c207260448201527f6563697069656e74206d6179206861766520726576657274656400000000000060648201526084016107fe565b60008080600080516020613b8d8339815191526003600080516020613b8d83398151915286600080516020613b8d833981519152888909090890506000613066827f0c19139cb84c680a6e14116da060561765e05aa45a1c72a34f082305b61f3f52600080516020613b8d833981519152613072565b91959194509092505050565b60008061307d61319b565b6130856131b9565b602080825281810181905260408201819052606082018890526080820187905260a082018690528260c08360056107d05a03fa925082806130c257fe5b50826131105760405162461bcd60e51b815260206004820152601a60248201527f424e3235342e6578704d6f643a2063616c6c206661696c75726500000000000060448201526064016107fe565b505195945050505050565b60405180606001604052806003906020820280368337509192915050565b60405180608001604052806004906020820280368337509192915050565b604051806040016040528061316a6131d7565b81526020016131776131d7565b905290565b604051806101800160405280600c906020820280368337509192915050565b60405180602001604052806001906020820280368337509192915050565b6040518060c001604052806006906020820280368337509192915050565b60405180604001604052806002906020820280368337509192915050565b80356001600160401b038116811461320c57600080fd5b919050565b60006020828403121561322357600080fd5b61322c826131f5565b9392505050565b60006020828403121561324557600080fd5b5035919050565b6001600160a01b038116811461084c57600080fd5b60006020828403121561327357600080fd5b813561322c8161324c565b60008060006060848603121561329357600080fd5b505081359360208301359350604090920135919050565b634e487b7160e01b600052604160045260246000fd5b604080519081016001600160401b03811182821017156132e2576132e26132aa565b60405290565b60405160e081016001600160401b03811182821017156132e2576132e26132aa565b60405161014081016001600160401b03811182821017156132e2576132e26132aa565b604051601f8201601f191681016001600160401b0381118282101715613355576133556132aa565b604052919050565b60006001600160401b03821115613376576133766132aa565b5060051b60200190565b600082601f83011261339157600080fd5b813560206133a66133a18361335d565b61332d565b82815260059290921b840181019181810190868411156133c557600080fd5b8286015b848110156133e057803583529183019183016133c9565b509695505050505050565b6000602082840312156133fd57600080fd5b81356001600160401b0381111561341357600080fd5b61341f84828501613380565b949350505050565b60006040828403121561343957600080fd5b6134416132c0565b9050813581526020820135602082015292915050565b600082601f83011261346857600080fd5b81356001600160401b03811115613481576134816132aa565b613494601f8201601f191660200161332d565b8181528460208386010111156134a957600080fd5b816020850160208301376000918101602001919091529392505050565b600082601f8301126134d757600080fd5b604051604081018181106001600160401b03821117156134f9576134f96132aa565b806040525080604084018581111561351057600080fd5b845b8181101561352a578035835260209283019201613512565b509195945050505050565b60006080828403121561354757600080fd5b61354f6132c0565b905061355b83836134c6565b815261356a83604084016134c6565b602082015292915050565b6000602080838503121561358857600080fd5b82356001600160401b038082111561359f57600080fd5b818501915085601f8301126135b357600080fd5b81356135c16133a18261335d565b81815260059190911b830184019084810190888311156135e057600080fd5b8585015b838110156136a4578035858111156135fc5760008081fd5b8601610180818c03601f190112156136145760008081fd5b61361c6132e8565b8882013581526040808301358a83015260608084013582840152608091506136468e838601613427565b9083015260c0838101358981111561365e5760008081fd5b61366c8f8d83880101613457565b838501525061367e8e60e08601613535565b60a08401526136918e6101608601613427565b90830152508452509186019186016135e4565b5098975050505050505050565b803563ffffffff8116811461320c57600080fd5b600082601f8301126136d657600080fd5b604051606081018181106001600160401b03821117156136f8576136f86132aa565b60405280606084018581111561351057600080fd5b60006020828403121561371f57600080fd5b81356001600160401b038082111561373657600080fd5b90830190610180828603121561374b57600080fd5b61375361330a565b82358152613763602084016131f5565b6020820152613774604084016131f5565b6040820152613785606084016136b1565b6060820152613796608084016136b1565b608082015260a083013560a082015260c083013560c08201526137bc8660e085016136c5565b60e0820152610140830135828111156137d457600080fd5b6137e087828601613380565b61010083015250610160830135828111156137fa57600080fd5b61380687828601613457565b6101208301525095945050505050565b6020808252818101527f4f776e61626c653a2063616c6c6572206973206e6f7420746865206f776e6572604082015260600190565b634e487b7160e01b600052601260045260246000fd5b634e487b7160e01b600052601160045260246000fd5b6000826138865761388661384b565b500490565b808201808211156111d9576111d9613861565b60008160001904831182151516156138b8576138b8613861565b500290565b818103818111156111d9576111d9613861565b6020808252602e908201527f496e697469616c697a61626c653a20636f6e747261637420697320616c72656160408201526d191e481a5b9a5d1a585b1a5e995960921b606082015260800190565b60006020828403121561393057600080fd5b5051919050565b6000826139465761394661384b565b500690565b634e487b7160e01b600052603260045260246000fd5b60006001820161397357613973613861565b5060010190565b60005b8381101561399557818101518382015260200161397d565b50506000910152565b83815282602082015260606040820152600082518060608401526139c981608085016020870161397a565b601f01601f191691909101608001949350505050565b600080600083850360808112156139f557600080fd5b6040811215613a0357600080fd5b50613a0c6132c0565b8451815260208086015190820152604085015160609095015190969495509392505050565b600060208284031215613a4357600080fd5b815161322c8161324c565b8060005b6002811015611144578151845260209384019390910190600101613a52565b888152876020820152866040820152856060820152613a936080820186613a4e565b613aa060c0820185613a4e565b610100810192909252610120820152610140019695505050505050565b60006001600160401b0380831681851681830481118215151615613ae357613ae3613861565b02949350505050565b60006001600160401b0380841680613b0657613b0661384b565b92169190910492915050565b60006001600160401b0380841680613b2c57613b2c61384b565b92169190910692915050565b6001600160401b03818116838216019080821115613b5857613b58613861565b5092915050565b83815282602082015260008251613b7d81604085016020870161397a565b9190910160400194935050505056fe30644e72e131a029b85045b68181585d97816a916871ca8d3c208c16d87cfd47a2646970667358221220fa862172d0681c7ec34df052b3b9b978950120c07574107e8a93e39abe3c2fe764736f6c63430008100033608060405234801561001057600080fd5b5061001a3361001f565b61006f565b600080546001600160a01b038381166001600160a01b0319831681178455604051919092169283917f8be0079c531659141344cd1fd0a4f28419497f9722a3daafe3b4186f6b6457e09190a35050565b61050e8061007e6000396000f3fe6080604052600436106100555760003560e01c806351cff8d91461005a578063715018a61461007c5780638da5cb5b14610091578063e3a9db1a146100be578063f2fde38b14610102578063f340fa0114610122575b600080fd5b34801561006657600080fd5b5061007a61007536600461048d565b610135565b005b34801561008857600080fd5b5061007a6101ac565b34801561009d57600080fd5b506000546040516001600160a01b0390911681526020015b60405180910390f35b3480156100ca57600080fd5b506100f46100d936600461048d565b6001600160a01b031660009081526001602052604090205490565b6040519081526020016100b5565b34801561010e57600080fd5b5061007a61011d36600461048d565b6101c0565b61007a61013036600461048d565b61023e565b61013d6102b0565b6001600160a01b0381166000818152600160205260408120805491905590610165908261030a565b816001600160a01b03167f7084f5476618d8e60b11ef0d7d3f06914655adb8793e28ff7f018d4c76d505d5826040516101a091815260200190565b60405180910390a25050565b6101b46102b0565b6101be6000610428565b565b6101c86102b0565b6001600160a01b0381166102325760405162461bcd60e51b815260206004820152602660248201527f4f776e61626c653a206e6577206f776e657220697320746865207a65726f206160448201526564647265737360d01b60648201526084015b60405180910390fd5b61023b81610428565b50565b6102466102b0565b6001600160a01b0381166000908152600160205260408120805434928392916102709084906104b1565b90915550506040518181526001600160a01b038316907f2da466a7b24304f47e87fa2e1e5a81b9831ce54fec19055ce277ca2f39ba42c4906020016101a0565b6000546001600160a01b031633146101be5760405162461bcd60e51b815260206004820181905260248201527f4f776e61626c653a2063616c6c6572206973206e6f7420746865206f776e65726044820152606401610229565b8047101561035a5760405162461bcd60e51b815260206004820152601d60248201527f416464726573733a20696e73756666696369656e742062616c616e63650000006044820152606401610229565b6000826001600160a01b03168260405160006040518083038185875af1925050503d80600081146103a7576040519150601f19603f3d011682016040523d82523d6000602084013e6103ac565b606091505b50509050806104235760405162461bcd60e51b815260206004820152603a60248201527f416464726573733a20756e61626c6520746f2073656e642076616c75652c207260448201527f6563697069656e74206d617920686176652072657665727465640000000000006064820152608401610229565b505050565b600080546001600160a01b038381166001600160a01b0319831681178455604051919092169283917f8be0079c531659141344cd1fd0a4f28419497f9722a3daafe3b4186f6b6457e09190a35050565b6001600160a01b038116811461023b57600080fd5b60006020828403121561049f57600080fd5b81356104aa81610478565b9392505050565b808201808211156104d257634e487b7160e01b600052601160045260246000fd5b9291505056fea26469706673582212200890c0d81cd6b764a01163d48ba4970d0d8193da63cda79f0fe4ecfb459481e364736f6c63430008100033",
  "linkReferences": {},
  "deployedLinkReferences": {}
}